{
    "_format": "hh-sol-artifact-1",
    "contractName": "Marketplace",
    "sourceName": "contracts/Marketplace.sol",
    "abi": [
        {
            "inputs": [
                {
                    "internalType": "address",
                    "name": "_propertyToken",
                    "type": "address"
                }
            ],
            "stateMutability": "nonpayable",
            "type": "constructor"
        },
        {
            "inputs": [
                {
                    "internalType": "address",
                    "name": "owner",
                    "type": "address"
                }
            ],
            "name": "OwnableInvalidOwner",
            "type": "error"
        },
        {
            "inputs": [
                {
                    "internalType": "address",
                    "name": "account",
                    "type": "address"
                }
            ],
            "name": "OwnableUnauthorizedAccount",
            "type": "error"
        },
        {
            "anonymous": false,
            "inputs": [
                {
                    "indexed": false,
                    "internalType": "uint256",
                    "name": "amount",
                    "type": "uint256"
                }
            ],
            "name": "FeesCollected",
            "type": "event"
        },
        {
            "anonymous": false,
            "inputs": [
                {
                    "indexed": true,
                    "internalType": "uint256",
                    "name": "listingId",
                    "type": "uint256"
                },
                {
                    "indexed": true,
                    "internalType": "address",
                    "name": "seller",
                    "type": "address"
                },
                {
                    "indexed": false,
                    "internalType": "uint256",
                    "name": "tokenId",
                    "type": "uint256"
                },
                {
                    "indexed": false,
                    "internalType": "uint256",
                    "name": "amount",
                    "type": "uint256"
                },
                {
                    "indexed": false,
                    "internalType": "uint256",
                    "name": "pricePerToken",
                    "type": "uint256"
                }
            ],
            "name": "Listed",
            "type": "event"
        },
        {
            "anonymous": false,
            "inputs": [
                {
                    "indexed": true,
                    "internalType": "uint256",
                    "name": "listingId",
                    "type": "uint256"
                }
            ],
            "name": "ListingCancelled",
            "type": "event"
        },
        {
            "anonymous": false,
            "inputs": [
                {
                    "indexed": true,
                    "internalType": "address",
                    "name": "previousOwner",
                    "type": "address"
                },
                {
                    "indexed": true,
                    "internalType": "address",
                    "name": "newOwner",
                    "type": "address"
                }
            ],
            "name": "OwnershipTransferred",
            "type": "event"
        },
        {
            "anonymous": false,
            "inputs": [
                {
                    "indexed": true,
                    "internalType": "uint256",
                    "name": "listingId",
                    "type": "uint256"
                },
                {
                    "indexed": true,
                    "internalType": "address",
                    "name": "buyer",
                    "type": "address"
                },
                {
                    "indexed": false,
                    "internalType": "uint256",
                    "name": "amount",
                    "type": "uint256"
                }
            ],
            "name": "Sale",
            "type": "event"
        },
        {
            "inputs": [],
            "name": "TRANSACTION_FEE_PERCENTAGE",
            "outputs": [
                {
                    "internalType": "uint256",
                    "name": "",
                    "type": "uint256"
                }
            ],
            "stateMutability": "view",
            "type": "function"
        },
        {
            "inputs": [
                {
                    "internalType": "uint256",
                    "name": "listingId",
                    "type": "uint256"
                },
                {
                    "internalType": "uint256",
                    "name": "amount",
                    "type": "uint256"
                }
            ],
            "name": "buyTokens",
            "outputs": [],
            "stateMutability": "payable",
            "type": "function"
        },
        {
            "inputs": [
                {
                    "internalType": "uint256",
                    "name": "listingId",
                    "type": "uint256"
                }
            ],
            "name": "cancelListing",
            "outputs": [],
            "stateMutability": "nonpayable",
            "type": "function"
        },
        {
            "inputs": [
                {
                    "internalType": "uint256",
                    "name": "tokenId",
                    "type": "uint256"
                },
                {
                    "internalType": "uint256",
                    "name": "amount",
                    "type": "uint256"
                },
                {
                    "internalType": "uint256",
                    "name": "pricePerToken",
                    "type": "uint256"
                }
            ],
            "name": "createListing",
            "outputs": [],
            "stateMutability": "nonpayable",
            "type": "function"
        },
        {
            "inputs": [],
            "name": "listingCount",
            "outputs": [
                {
                    "internalType": "uint256",
                    "name": "",
                    "type": "uint256"
                }
            ],
            "stateMutability": "view",
            "type": "function"
        },
        {
            "inputs": [
                {
                    "internalType": "uint256",
                    "name": "",
                    "type": "uint256"
                }
            ],
            "name": "listings",
            "outputs": [
                {
                    "internalType": "address",
                    "name": "seller",
                    "type": "address"
                },
                {
                    "internalType": "uint256",
                    "name": "tokenId",
                    "type": "uint256"
                },
                {
                    "internalType": "uint256",
                    "name": "amount",
                    "type": "uint256"
                },
                {
                    "internalType": "uint256",
                    "name": "pricePerToken",
                    "type": "uint256"
                },
                {
                    "internalType": "bool",
                    "name": "isActive",
                    "type": "bool"
                }
            ],
            "stateMutability": "view",
            "type": "function"
        },
        {
            "inputs": [
                {
                    "internalType": "address",
                    "name": "",
                    "type": "address"
                },
                {
                    "internalType": "address",
                    "name": "",
                    "type": "address"
                },
                {
                    "internalType": "uint256[]",
                    "name": "",
                    "type": "uint256[]"
                },
                {
                    "internalType": "uint256[]",
                    "name": "",
                    "type": "uint256[]"
                },
                {
                    "internalType": "bytes",
                    "name": "",
                    "type": "bytes"
                }
            ],
            "name": "onERC1155BatchReceived",
            "outputs": [
                {
                    "internalType": "bytes4",
                    "name": "",
                    "type": "bytes4"
                }
            ],
            "stateMutability": "nonpayable",
            "type": "function"
        },
        {
            "inputs": [
                {
                    "internalType": "address",
                    "name": "",
                    "type": "address"
                },
                {
                    "internalType": "address",
                    "name": "",
                    "type": "address"
                },
                {
                    "internalType": "uint256",
                    "name": "",
                    "type": "uint256"
                },
                {
                    "internalType": "uint256",
                    "name": "",
                    "type": "uint256"
                },
                {
                    "internalType": "bytes",
                    "name": "",
                    "type": "bytes"
                }
            ],
            "name": "onERC1155Received",
            "outputs": [
                {
                    "internalType": "bytes4",
                    "name": "",
                    "type": "bytes4"
                }
            ],
            "stateMutability": "nonpayable",
            "type": "function"
        },
        {
            "inputs": [],
            "name": "owner",
            "outputs": [
                {
                    "internalType": "address",
                    "name": "",
                    "type": "address"
                }
            ],
            "stateMutability": "view",
            "type": "function"
        },
        {
            "inputs": [],
            "name": "propertyToken",
            "outputs": [
                {
                    "internalType": "contract IERC1155",
                    "name": "",
                    "type": "address"
                }
            ],
            "stateMutability": "view",
            "type": "function"
        },
        {
            "inputs": [],
            "name": "renounceOwnership",
            "outputs": [],
            "stateMutability": "nonpayable",
            "type": "function"
        },
        {
            "inputs": [
                {
                    "internalType": "bytes4",
                    "name": "interfaceId",
                    "type": "bytes4"
                }
            ],
            "name": "supportsInterface",
            "outputs": [
                {
                    "internalType": "bool",
                    "name": "",
                    "type": "bool"
                }
            ],
            "stateMutability": "view",
            "type": "function"
        },
        {
            "inputs": [
                {
                    "internalType": "address",
                    "name": "newOwner",
                    "type": "address"
                }
            ],
            "name": "transferOwnership",
            "outputs": [],
            "stateMutability": "nonpayable",
            "type": "function"
        },
        {
            "inputs": [],
            "name": "withdrawFees",
            "outputs": [],
            "stateMutability": "nonpayable",
            "type": "function"
        }
    ],
    "bytecode": "0x60806040523480156200001157600080fd5b5060405162001d7e38038062001d7e833981810160405281019062000037919062000235565b33600073ffffffffffffffffffffffffffffffffffffffff168173ffffffffffffffffffffffffffffffffffffffff1603620000ad5760006040517f1e4fbdf7000000000000000000000000000000000000000000000000000000008152600401620000a4919062000278565b60405180910390fd5b620000be816200010760201b60201c565b5080600160006101000a81548173ffffffffffffffffffffffffffffffffffffffff021916908373ffffffffffffffffffffffffffffffffffffffff1602179055505062000295565b60008060009054906101000a900473ffffffffffffffffffffffffffffffffffffffff169050816000806101000a81548173ffffffffffffffffffffffffffffffffffffffff021916908373ffffffffffffffffffffffffffffffffffffffff1602179055508173ffffffffffffffffffffffffffffffffffffffff168173ffffffffffffffffffffffffffffffffffffffff167f8be0079c531659141344cd1fd0a4f28419497f9722a3daafe3b4186f6b6457e060405160405180910390a35050565b600080fd5b600073ffffffffffffffffffffffffffffffffffffffff82169050919050565b6000620001fd82620001d0565b9050919050565b6200020f81620001f0565b81146200021b57600080fd5b50565b6000815190506200022f8162000204565b92915050565b6000602082840312156200024e576200024d620001cb565b5b60006200025e848285016200021e565b91505092915050565b6200027281620001f0565b82525050565b60006020820190506200028f600083018462000267565b92915050565b611ad980620002a56000396000f3fe6080604052600436106100dd5760003560e01c8063a3907af31161007f578063bc197c8111610059578063bc197c8114610267578063de74e57b146102a4578063f23a6e61146102e5578063f2fde38b14610322576100dd565b8063a3907af3146101e8578063a9b07c2614610213578063b03053b61461023e576100dd565b8063476343ee116100bb578063476343ee14610173578063715018a61461018a5780637975ce28146101a15780638da5cb5b146101bd576100dd565b806301ffc9a7146100e2578063305a67a81461011f57806343ae269514610148575b600080fd5b3480156100ee57600080fd5b5061010960048036038101906101049190610f20565b61034b565b6040516101169190610f68565b60405180910390f35b34801561012b57600080fd5b5061014660048036038101906101419190610fb9565b6103c5565b005b34801561015457600080fd5b5061015d6105a8565b60405161016a9190611065565b60405180910390f35b34801561017f57600080fd5b506101886105ce565b005b34801561019657600080fd5b5061019f61062c565b005b6101bb60048036038101906101b69190611080565b610640565b005b3480156101c957600080fd5b506101d2610948565b6040516101df91906110e1565b60405180910390f35b3480156101f457600080fd5b506101fd610971565b60405161020a919061110b565b60405180910390f35b34801561021f57600080fd5b50610228610976565b604051610235919061110b565b60405180910390f35b34801561024a57600080fd5b5061026560048036038101906102609190611126565b61097c565b005b34801561027357600080fd5b5061028e600480360381019061028991906113b3565b610be4565b60405161029b9190611491565b60405180910390f35b3480156102b057600080fd5b506102cb60048036038101906102c69190610fb9565b610bf9565b6040516102dc9594939291906114ac565b60405180910390f35b3480156102f157600080fd5b5061030c600480360381019061030791906114ff565b610c5c565b6040516103199190611491565b60405180910390f35b34801561032e57600080fd5b5061034960048036038101906103449190611596565b610c71565b005b60007f4e2312e0000000000000000000000000000000000000000000000000000000007bffffffffffffffffffffffffffffffffffffffffffffffffffffffff1916827bffffffffffffffffffffffffffffffffffffffffffffffffffffffff191614806103be57506103bd82610cf7565b5b9050919050565b60006002600083815260200190815260200160002090508060000160009054906101000a900473ffffffffffffffffffffffffffffffffffffffff1673ffffffffffffffffffffffffffffffffffffffff163373ffffffffffffffffffffffffffffffffffffffff161461046e576040517f08c379a000000000000000000000000000000000000000000000000000000000815260040161046590611620565b60405180910390fd5b8060040160009054906101000a900460ff166104bf576040517f08c379a00000000000000000000000000000000000000000000000000000000081526004016104b69061168c565b60405180910390fd5b60008160040160006101000a81548160ff021916908315150217905550600160009054906101000a900473ffffffffffffffffffffffffffffffffffffffff1673ffffffffffffffffffffffffffffffffffffffff1663f242432a3033846001015485600201546040518563ffffffff1660e01b815260040161054594939291906116e3565b600060405180830381600087803b15801561055f57600080fd5b505af1158015610573573d6000803e3d6000fd5b50505050817f411aee90354c51b1b04cd563fcab2617142a9d50da19232d888547c8a1b7fd8a60405160405180910390a25050565b600160009054906101000a900473ffffffffffffffffffffffffffffffffffffffff1681565b6105d6610d61565b60004790506105e3610948565b73ffffffffffffffffffffffffffffffffffffffff166108fc829081150290604051600060405180830381858888f19350505050158015610628573d6000803e3d6000fd5b5050565b610634610d61565b61063e6000610de8565b565b60006002600084815260200190815260200160002090508060040160009054906101000a900460ff166106a8576040517f08c379a000000000000000000000000000000000000000000000000000000000815260040161069f9061168c565b60405180910390fd5b80600201548211156106ef576040517f08c379a00000000000000000000000000000000000000000000000000000000081526004016106e690611787565b60405180910390fd5b600081600301548361070191906117d6565b90506000606460028361071491906117d6565b61071e9190611847565b90506000818361072e9190611878565b905080341015610773576040517f08c379a000000000000000000000000000000000000000000000000000000000815260040161076a906118f8565b60405180910390fd5b848460020160008282546107879190611918565b9250508190555060008460020154036107b85760008460040160006101000a81548160ff0219169083151502179055505b600160009054906101000a900473ffffffffffffffffffffffffffffffffffffffff1673ffffffffffffffffffffffffffffffffffffffff1663f242432a30338760010154896040518563ffffffff1660e01b815260040161081d94939291906116e3565b600060405180830381600087803b15801561083757600080fd5b505af115801561084b573d6000803e3d6000fd5b505050508360000160009054906101000a900473ffffffffffffffffffffffffffffffffffffffff1673ffffffffffffffffffffffffffffffffffffffff166108fc849081150290604051600060405180830381858888f193505050501580156108b9573d6000803e3d6000fd5b503373ffffffffffffffffffffffffffffffffffffffff16867fc0e076a004e59b819c1099b4799386d7feaa928662e5f3f95af4db1a1502520d87604051610901919061110b565b60405180910390a37f860c0aa5520013080c2f65981705fcdea474d9f7c3daf954656ed5e65d692d1f82604051610938919061110b565b60405180910390a1505050505050565b60008060009054906101000a900473ffffffffffffffffffffffffffffffffffffffff16905090565b600281565b60035481565b600082116109bf576040517f08c379a00000000000000000000000000000000000000000000000000000000081526004016109b690611998565b60405180910390fd5b60008111610a02576040517f08c379a00000000000000000000000000000000000000000000000000000000081526004016109f990611a04565b60405180910390fd5b600160009054906101000a900473ffffffffffffffffffffffffffffffffffffffff1673ffffffffffffffffffffffffffffffffffffffff1663f242432a333086866040518563ffffffff1660e01b8152600401610a6394939291906116e3565b600060405180830381600087803b158015610a7d57600080fd5b505af1158015610a91573d6000803e3d6000fd5b5050505060036000815480929190610aa890611a24565b91905055506040518060a001604052803373ffffffffffffffffffffffffffffffffffffffff1681526020018481526020018381526020018281526020016001151581525060026000600354815260200190815260200160002060008201518160000160006101000a81548173ffffffffffffffffffffffffffffffffffffffff021916908373ffffffffffffffffffffffffffffffffffffffff16021790555060208201518160010155604082015181600201556060820151816003015560808201518160040160006101000a81548160ff0219169083151502179055509050503373ffffffffffffffffffffffffffffffffffffffff166003547fd0e2632082726e989c9a9cac6d495b05080e0d6836ee21e07618b32d5719a404858585604051610bd793929190611a6c565b60405180910390a3505050565b600063bc197c8160e01b905095945050505050565b60026020528060005260406000206000915090508060000160009054906101000a900473ffffffffffffffffffffffffffffffffffffffff16908060010154908060020154908060030154908060040160009054906101000a900460ff16905085565b600063f23a6e6160e01b905095945050505050565b610c79610d61565b600073ffffffffffffffffffffffffffffffffffffffff168173ffffffffffffffffffffffffffffffffffffffff1603610ceb5760006040517f1e4fbdf7000000000000000000000000000000000000000000000000000000008152600401610ce291906110e1565b60405180910390fd5b610cf481610de8565b50565b60007f01ffc9a7000000000000000000000000000000000000000000000000000000007bffffffffffffffffffffffffffffffffffffffffffffffffffffffff1916827bffffffffffffffffffffffffffffffffffffffffffffffffffffffff1916149050919050565b610d69610eac565b73ffffffffffffffffffffffffffffffffffffffff16610d87610948565b73ffffffffffffffffffffffffffffffffffffffff1614610de657610daa610eac565b6040517f118cdaa7000000000000000000000000000000000000000000000000000000008152600401610ddd91906110e1565b60405180910390fd5b565b60008060009054906101000a900473ffffffffffffffffffffffffffffffffffffffff169050816000806101000a81548173ffffffffffffffffffffffffffffffffffffffff021916908373ffffffffffffffffffffffffffffffffffffffff1602179055508173ffffffffffffffffffffffffffffffffffffffff168173ffffffffffffffffffffffffffffffffffffffff167f8be0079c531659141344cd1fd0a4f28419497f9722a3daafe3b4186f6b6457e060405160405180910390a35050565b600033905090565b6000604051905090565b600080fd5b600080fd5b60007fffffffff0000000000000000000000000000000000000000000000000000000082169050919050565b610efd81610ec8565b8114610f0857600080fd5b50565b600081359050610f1a81610ef4565b92915050565b600060208284031215610f3657610f35610ebe565b5b6000610f4484828501610f0b565b91505092915050565b60008115159050919050565b610f6281610f4d565b82525050565b6000602082019050610f7d6000830184610f59565b92915050565b6000819050919050565b610f9681610f83565b8114610fa157600080fd5b50565b600081359050610fb381610f8d565b92915050565b600060208284031215610fcf57610fce610ebe565b5b6000610fdd84828501610fa4565b91505092915050565b600073ffffffffffffffffffffffffffffffffffffffff82169050919050565b6000819050919050565b600061102b61102661102184610fe6565b611006565b610fe6565b9050919050565b600061103d82611010565b9050919050565b600061104f82611032565b9050919050565b61105f81611044565b82525050565b600060208201905061107a6000830184611056565b92915050565b6000806040838503121561109757611096610ebe565b5b60006110a585828601610fa4565b92505060206110b685828601610fa4565b9150509250929050565b60006110cb82610fe6565b9050919050565b6110db816110c0565b82525050565b60006020820190506110f660008301846110d2565b92915050565b61110581610f83565b82525050565b600060208201905061112060008301846110fc565b92915050565b60008060006060848603121561113f5761113e610ebe565b5b600061114d86828701610fa4565b935050602061115e86828701610fa4565b925050604061116f86828701610fa4565b9150509250925092565b611182816110c0565b811461118d57600080fd5b50565b60008135905061119f81611179565b92915050565b600080fd5b6000601f19601f8301169050919050565b7f4e487b7100000000000000000000000000000000000000000000000000000000600052604160045260246000fd5b6111f3826111aa565b810181811067ffffffffffffffff82111715611212576112116111bb565b5b80604052505050565b6000611225610eb4565b905061123182826111ea565b919050565b600067ffffffffffffffff821115611251576112506111bb565b5b602082029050602081019050919050565b600080fd5b600061127a61127584611236565b61121b565b9050808382526020820190506020840283018581111561129d5761129c611262565b5b835b818110156112c657806112b28882610fa4565b84526020840193505060208101905061129f565b5050509392505050565b600082601f8301126112e5576112e46111a5565b5b81356112f5848260208601611267565b91505092915050565b600080fd5b600067ffffffffffffffff82111561131e5761131d6111bb565b5b611327826111aa565b9050602081019050919050565b82818337600083830152505050565b600061135661135184611303565b61121b565b905082815260208101848484011115611372576113716112fe565b5b61137d848285611334565b509392505050565b600082601f83011261139a576113996111a5565b5b81356113aa848260208601611343565b91505092915050565b600080600080600060a086880312156113cf576113ce610ebe565b5b60006113dd88828901611190565b95505060206113ee88828901611190565b945050604086013567ffffffffffffffff81111561140f5761140e610ec3565b5b61141b888289016112d0565b935050606086013567ffffffffffffffff81111561143c5761143b610ec3565b5b611448888289016112d0565b925050608086013567ffffffffffffffff81111561146957611468610ec3565b5b61147588828901611385565b9150509295509295909350565b61148b81610ec8565b82525050565b60006020820190506114a66000830184611482565b92915050565b600060a0820190506114c160008301886110d2565b6114ce60208301876110fc565b6114db60408301866110fc565b6114e860608301856110fc565b6114f56080830184610f59565b9695505050505050565b600080600080600060a0868803121561151b5761151a610ebe565b5b600061152988828901611190565b955050602061153a88828901611190565b945050604061154b88828901610fa4565b935050606061155c88828901610fa4565b925050608086013567ffffffffffffffff81111561157d5761157c610ec3565b5b61158988828901611385565b9150509295509295909350565b6000602082840312156115ac576115ab610ebe565b5b60006115ba84828501611190565b91505092915050565b600082825260208201905092915050565b7f4f6e6c792073656c6c65722063616e2063616e63656c206c697374696e670000600082015250565b600061160a601e836115c3565b9150611615826115d4565b602082019050919050565b60006020820190508181036000830152611639816115fd565b9050919050565b7f4c697374696e67206973206e6f74206163746976650000000000000000000000600082015250565b60006116766015836115c3565b915061168182611640565b602082019050919050565b600060208201905081810360008301526116a581611669565b9050919050565b600082825260208201905092915050565b50565b60006116cd6000836116ac565b91506116d8826116bd565b600082019050919050565b600060a0820190506116f860008301876110d2565b61170560208301866110d2565b61171260408301856110fc565b61171f60608301846110fc565b8181036080830152611730816116c0565b905095945050505050565b7f4e6f7420656e6f75676820746f6b656e7320617661696c61626c650000000000600082015250565b6000611771601b836115c3565b915061177c8261173b565b602082019050919050565b600060208201905081810360008301526117a081611764565b9050919050565b7f4e487b7100000000000000000000000000000000000000000000000000000000600052601160045260246000fd5b60006117e182610f83565b91506117ec83610f83565b92508282026117fa81610f83565b91508282048414831517611811576118106117a7565b5b5092915050565b7f4e487b7100000000000000000000000000000000000000000000000000000000600052601260045260246000fd5b600061185282610f83565b915061185d83610f83565b92508261186d5761186c611818565b5b828204905092915050565b600061188382610f83565b915061188e83610f83565b92508282019050808211156118a6576118a56117a7565b5b92915050565b7f496e73756666696369656e74207061796d656e74000000000000000000000000600082015250565b60006118e26014836115c3565b91506118ed826118ac565b602082019050919050565b60006020820190508181036000830152611911816118d5565b9050919050565b600061192382610f83565b915061192e83610f83565b9250828203905081811115611946576119456117a7565b5b92915050565b7f416d6f756e74206d7573742062652067726561746572207468616e2030000000600082015250565b6000611982601d836115c3565b915061198d8261194c565b602082019050919050565b600060208201905081810360008301526119b181611975565b9050919050565b7f5072696365206d7573742062652067726561746572207468616e203000000000600082015250565b60006119ee601c836115c3565b91506119f9826119b8565b602082019050919050565b60006020820190508181036000830152611a1d816119e1565b9050919050565b6000611a2f82610f83565b91507fffffffffffffffffffffffffffffffffffffffffffffffffffffffffffffffff8203611a6157611a606117a7565b5b600182019050919050565b6000606082019050611a8160008301866110fc565b611a8e60208301856110fc565b611a9b60408301846110fc565b94935050505056fea2646970667358221220ee542168daa6c60cb077b3e7f5a0f47b10f18463b26a73339015294b127ef35964736f6c63430008140033",
    "linkReferences": {},
    "deployedLinkReferences": {}
}