{
    "_format": "hh-sol-artifact-1",
    "contractName": "PropertyToken",
    "sourceName": "contracts/PropertyToken.sol",
    "abi": [
        {
            "inputs": [],
            "stateMutability": "nonpayable",
            "type": "constructor"
        },
        {
            "inputs": [
                {
                    "internalType": "address",
                    "name": "sender",
                    "type": "address"
                },
                {
                    "internalType": "uint256",
                    "name": "balance",
                    "type": "uint256"
                },
                {
                    "internalType": "uint256",
                    "name": "needed",
                    "type": "uint256"
                },
                {
                    "internalType": "uint256",
                    "name": "tokenId",
                    "type": "uint256"
                }
            ],
            "name": "ERC1155InsufficientBalance",
            "type": "error"
        },
        {
            "inputs": [
                {
                    "internalType": "address",
                    "name": "approver",
                    "type": "address"
                }
            ],
            "name": "ERC1155InvalidApprover",
            "type": "error"
        },
        {
            "inputs": [
                {
                    "internalType": "uint256",
                    "name": "idsLength",
                    "type": "uint256"
                },
                {
                    "internalType": "uint256",
                    "name": "valuesLength",
                    "type": "uint256"
                }
            ],
            "name": "ERC1155InvalidArrayLength",
            "type": "error"
        },
        {
            "inputs": [
                {
                    "internalType": "address",
                    "name": "operator",
                    "type": "address"
                }
            ],
            "name": "ERC1155InvalidOperator",
            "type": "error"
        },
        {
            "inputs": [
                {
                    "internalType": "address",
                    "name": "receiver",
                    "type": "address"
                }
            ],
            "name": "ERC1155InvalidReceiver",
            "type": "error"
        },
        {
            "inputs": [
                {
                    "internalType": "address",
                    "name": "sender",
                    "type": "address"
                }
            ],
            "name": "ERC1155InvalidSender",
            "type": "error"
        },
        {
            "inputs": [
                {
                    "internalType": "address",
                    "name": "operator",
                    "type": "address"
                },
                {
                    "internalType": "address",
                    "name": "owner",
                    "type": "address"
                }
            ],
            "name": "ERC1155MissingApprovalForAll",
            "type": "error"
        },
        {
            "inputs": [
                {
                    "internalType": "address",
                    "name": "owner",
                    "type": "address"
                }
            ],
            "name": "OwnableInvalidOwner",
            "type": "error"
        },
        {
            "inputs": [
                {
                    "internalType": "address",
                    "name": "account",
                    "type": "address"
                }
            ],
            "name": "OwnableUnauthorizedAccount",
            "type": "error"
        },
        {
            "anonymous": false,
            "inputs": [
                {
                    "indexed": true,
                    "internalType": "address",
                    "name": "account",
                    "type": "address"
                },
                {
                    "indexed": true,
                    "internalType": "address",
                    "name": "operator",
                    "type": "address"
                },
                {
                    "indexed": false,
                    "internalType": "bool",
                    "name": "approved",
                    "type": "bool"
                }
            ],
            "name": "ApprovalForAll",
            "type": "event"
        },
        {
            "anonymous": false,
            "inputs": [
                {
                    "indexed": true,
                    "internalType": "address",
                    "name": "previousOwner",
                    "type": "address"
                },
                {
                    "indexed": true,
                    "internalType": "address",
                    "name": "newOwner",
                    "type": "address"
                }
            ],
            "name": "OwnershipTransferred",
            "type": "event"
        },
        {
            "anonymous": false,
            "inputs": [
                {
                    "indexed": true,
                    "internalType": "address",
                    "name": "to",
                    "type": "address"
                },
                {
                    "indexed": false,
                    "internalType": "uint256[]",
                    "name": "ids",
                    "type": "uint256[]"
                },
                {
                    "indexed": false,
                    "internalType": "uint256[]",
                    "name": "amounts",
                    "type": "uint256[]"
                }
            ],
            "name": "TokenBatchMinted",
            "type": "event"
        },
        {
            "anonymous": false,
            "inputs": [
                {
                    "indexed": true,
                    "internalType": "address",
                    "name": "to",
                    "type": "address"
                },
                {
                    "indexed": true,
                    "internalType": "uint256",
                    "name": "tokenId",
                    "type": "uint256"
                },
                {
                    "indexed": false,
                    "internalType": "uint256",
                    "name": "amount",
                    "type": "uint256"
                }
            ],
            "name": "TokenMinted",
            "type": "event"
        },
        {
            "anonymous": false,
            "inputs": [
                {
                    "indexed": true,
                    "internalType": "address",
                    "name": "operator",
                    "type": "address"
                },
                {
                    "indexed": true,
                    "internalType": "address",
                    "name": "from",
                    "type": "address"
                },
                {
                    "indexed": true,
                    "internalType": "address",
                    "name": "to",
                    "type": "address"
                },
                {
                    "indexed": false,
                    "internalType": "uint256[]",
                    "name": "ids",
                    "type": "uint256[]"
                },
                {
                    "indexed": false,
                    "internalType": "uint256[]",
                    "name": "values",
                    "type": "uint256[]"
                }
            ],
            "name": "TransferBatch",
            "type": "event"
        },
        {
            "anonymous": false,
            "inputs": [
                {
                    "indexed": true,
                    "internalType": "address",
                    "name": "operator",
                    "type": "address"
                },
                {
                    "indexed": true,
                    "internalType": "address",
                    "name": "from",
                    "type": "address"
                },
                {
                    "indexed": true,
                    "internalType": "address",
                    "name": "to",
                    "type": "address"
                },
                {
                    "indexed": false,
                    "internalType": "uint256",
                    "name": "id",
                    "type": "uint256"
                },
                {
                    "indexed": false,
                    "internalType": "uint256",
                    "name": "value",
                    "type": "uint256"
                }
            ],
            "name": "TransferSingle",
            "type": "event"
        },
        {
            "anonymous": false,
            "inputs": [
                {
                    "indexed": false,
                    "internalType": "string",
                    "name": "value",
                    "type": "string"
                },
                {
                    "indexed": true,
                    "internalType": "uint256",
                    "name": "id",
                    "type": "uint256"
                }
            ],
            "name": "URI",
            "type": "event"
        },
        {
            "inputs": [
                {
                    "internalType": "address",
                    "name": "account",
                    "type": "address"
                },
                {
                    "internalType": "uint256",
                    "name": "id",
                    "type": "uint256"
                }
            ],
            "name": "balanceOf",
            "outputs": [
                {
                    "internalType": "uint256",
                    "name": "",
                    "type": "uint256"
                }
            ],
            "stateMutability": "view",
            "type": "function"
        },
        {
            "inputs": [
                {
                    "internalType": "address[]",
                    "name": "accounts",
                    "type": "address[]"
                },
                {
                    "internalType": "uint256[]",
                    "name": "ids",
                    "type": "uint256[]"
                }
            ],
            "name": "balanceOfBatch",
            "outputs": [
                {
                    "internalType": "uint256[]",
                    "name": "",
                    "type": "uint256[]"
                }
            ],
            "stateMutability": "view",
            "type": "function"
        },
        {
            "inputs": [
                {
                    "internalType": "uint256",
                    "name": "id",
                    "type": "uint256"
                }
            ],
            "name": "exists",
            "outputs": [
                {
                    "internalType": "bool",
                    "name": "",
                    "type": "bool"
                }
            ],
            "stateMutability": "view",
            "type": "function"
        },
        {
            "inputs": [
                {
                    "internalType": "address",
                    "name": "account",
                    "type": "address"
                },
                {
                    "internalType": "address",
                    "name": "operator",
                    "type": "address"
                }
            ],
            "name": "isApprovedForAll",
            "outputs": [
                {
                    "internalType": "bool",
                    "name": "",
                    "type": "bool"
                }
            ],
            "stateMutability": "view",
            "type": "function"
        },
        {
            "inputs": [
                {
                    "internalType": "address",
                    "name": "account",
                    "type": "address"
                },
                {
                    "internalType": "uint256",
                    "name": "amount",
                    "type": "uint256"
                },
                {
                    "internalType": "bytes",
                    "name": "data",
                    "type": "bytes"
                }
            ],
            "name": "mint",
            "outputs": [],
            "stateMutability": "nonpayable",
            "type": "function"
        },
        {
            "inputs": [
                {
                    "internalType": "address",
                    "name": "to",
                    "type": "address"
                },
                {
                    "internalType": "uint256[]",
                    "name": "amounts",
                    "type": "uint256[]"
                },
                {
                    "internalType": "bytes",
                    "name": "data",
                    "type": "bytes"
                }
            ],
            "name": "mintBatch",
            "outputs": [],
            "stateMutability": "nonpayable",
            "type": "function"
        },
        {
            "inputs": [],
            "name": "owner",
            "outputs": [
                {
                    "internalType": "address",
                    "name": "",
                    "type": "address"
                }
            ],
            "stateMutability": "view",
            "type": "function"
        },
        {
            "inputs": [],
            "name": "renounceOwnership",
            "outputs": [],
            "stateMutability": "nonpayable",
            "type": "function"
        },
        {
            "inputs": [
                {
                    "internalType": "address",
                    "name": "from",
                    "type": "address"
                },
                {
                    "internalType": "address",
                    "name": "to",
                    "type": "address"
                },
                {
                    "internalType": "uint256[]",
                    "name": "ids",
                    "type": "uint256[]"
                },
                {
                    "internalType": "uint256[]",
                    "name": "values",
                    "type": "uint256[]"
                },
                {
                    "internalType": "bytes",
                    "name": "data",
                    "type": "bytes"
                }
            ],
            "name": "safeBatchTransferFrom",
            "outputs": [],
            "stateMutability": "nonpayable",
            "type": "function"
        },
        {
            "inputs": [
                {
                    "internalType": "address",
                    "name": "from",
                    "type": "address"
                },
                {
                    "internalType": "address",
                    "name": "to",
                    "type": "address"
                },
                {
                    "internalType": "uint256",
                    "name": "id",
                    "type": "uint256"
                },
                {
                    "internalType": "uint256",
                    "name": "value",
                    "type": "uint256"
                },
                {
                    "internalType": "bytes",
                    "name": "data",
                    "type": "bytes"
                }
            ],
            "name": "safeTransferFrom",
            "outputs": [],
            "stateMutability": "nonpayable",
            "type": "function"
        },
        {
            "inputs": [
                {
                    "internalType": "address",
                    "name": "operator",
                    "type": "address"
                },
                {
                    "internalType": "bool",
                    "name": "approved",
                    "type": "bool"
                }
            ],
            "name": "setApprovalForAll",
            "outputs": [],
            "stateMutability": "nonpayable",
            "type": "function"
        },
        {
            "inputs": [
                {
                    "internalType": "uint256",
                    "name": "tokenId",
                    "type": "uint256"
                },
                {
                    "internalType": "string",
                    "name": "newuri",
                    "type": "string"
                }
            ],
            "name": "setURI",
            "outputs": [],
            "stateMutability": "nonpayable",
            "type": "function"
        },
        {
            "inputs": [
                {
                    "internalType": "bytes4",
                    "name": "interfaceId",
                    "type": "bytes4"
                }
            ],
            "name": "supportsInterface",
            "outputs": [
                {
                    "internalType": "bool",
                    "name": "",
                    "type": "bool"
                }
            ],
            "stateMutability": "view",
            "type": "function"
        },
        {
            "inputs": [
                {
                    "internalType": "uint256",
                    "name": "tokenId",
                    "type": "uint256"
                }
            ],
            "name": "tokenURI",
            "outputs": [
                {
                    "internalType": "string",
                    "name": "",
                    "type": "string"
                }
            ],
            "stateMutability": "view",
            "type": "function"
        },
        {
            "inputs": [],
            "name": "totalSupply",
            "outputs": [
                {
                    "internalType": "uint256",
                    "name": "",
                    "type": "uint256"
                }
            ],
            "stateMutability": "view",
            "type": "function"
        },
        {
            "inputs": [
                {
                    "internalType": "uint256",
                    "name": "id",
                    "type": "uint256"
                }
            ],
            "name": "totalSupply",
            "outputs": [
                {
                    "internalType": "uint256",
                    "name": "",
                    "type": "uint256"
                }
            ],
            "stateMutability": "view",
            "type": "function"
        },
        {
            "inputs": [
                {
                    "internalType": "address",
                    "name": "newOwner",
                    "type": "address"
                }
            ],
            "name": "transferOwnership",
            "outputs": [],
            "stateMutability": "nonpayable",
            "type": "function"
        },
        {
            "inputs": [
                {
                    "internalType": "uint256",
                    "name": "tokenId",
                    "type": "uint256"
                }
            ],
            "name": "uri",
            "outputs": [
                {
                    "internalType": "string",
                    "name": "",
                    "type": "string"
                }
            ],
            "stateMutability": "view",
            "type": "function"
        }
    ],
    "bytecode": "0x608060405260006006553480156200001657600080fd5b5033604051806020016040528060008152506200003981620000c760201b60201c565b50600073ffffffffffffffffffffffffffffffffffffffff168173ffffffffffffffffffffffffffffffffffffffff1603620000af5760006040517f1e4fbdf7000000000000000000000000000000000000000000000000000000008152600401620000a69190620001e7565b60405180910390fd5b620000c081620000dc60201b60201c565b5062000565565b8060029081620000d891906200047e565b5050565b6000600360009054906101000a900473ffffffffffffffffffffffffffffffffffffffff16905081600360006101000a81548173ffffffffffffffffffffffffffffffffffffffff021916908373ffffffffffffffffffffffffffffffffffffffff1602179055508173ffffffffffffffffffffffffffffffffffffffff168173ffffffffffffffffffffffffffffffffffffffff167f8be0079c531659141344cd1fd0a4f28419497f9722a3daafe3b4186f6b6457e060405160405180910390a35050565b600073ffffffffffffffffffffffffffffffffffffffff82169050919050565b6000620001cf82620001a2565b9050919050565b620001e181620001c2565b82525050565b6000602082019050620001fe6000830184620001d6565b92915050565b600081519050919050565b7f4e487b7100000000000000000000000000000000000000000000000000000000600052604160045260246000fd5b7f4e487b7100000000000000000000000000000000000000000000000000000000600052602260045260246000fd5b600060028204905060018216806200028657607f821691505b6020821081036200029c576200029b6200023e565b5b50919050565b60008190508160005260206000209050919050565b60006020601f8301049050919050565b600082821b905092915050565b600060088302620003067fffffffffffffffffffffffffffffffffffffffffffffffffffffffffffffffff82620002c7565b620003128683620002c7565b95508019841693508086168417925050509392505050565b6000819050919050565b6000819050919050565b60006200035f6200035962000353846200032a565b62000334565b6200032a565b9050919050565b6000819050919050565b6200037b836200033e565b620003936200038a8262000366565b848454620002d4565b825550505050565b600090565b620003aa6200039b565b620003b781848462000370565b505050565b5b81811015620003df57620003d3600082620003a0565b600181019050620003bd565b5050565b601f8211156200042e57620003f881620002a2565b6200040384620002b7565b8101602085101562000413578190505b6200042b6200042285620002b7565b830182620003bc565b50505b505050565b600082821c905092915050565b6000620004536000198460080262000433565b1980831691505092915050565b60006200046e838362000440565b9150826002028217905092915050565b620004898262000204565b67ffffffffffffffff811115620004a557620004a46200020f565b5b620004b182546200026d565b620004be828285620003e3565b600060209050601f831160018114620004f65760008415620004e1578287015190505b620004ed858262000460565b8655506200055d565b601f1984166200050686620002a2565b60005b82811015620005305784890151825560018201915060208501945060208101905062000509565b868310156200055057848901516200054c601f89168262000440565b8355505b6001600288020188555050505b505050505050565b61316080620005756000396000f3fe608060405234801561001057600080fd5b50600436106101155760003560e01c8063862440e2116100a2578063bd85b03911610071578063bd85b039146102dc578063c87b56dd1461030c578063e985e9c51461033c578063f242432a1461036c578063f2fde38b1461038857610115565b8063862440e21461026a5780638da5cb5b1461028657806394d008ef146102a4578063a22cb465146102c057610115565b806322862482116100e957806322862482146101c85780632eb2c2d6146101e45780634e1273f4146102005780634f558e7914610230578063715018a61461026057610115565b8062fdd58e1461011a57806301ffc9a71461014a5780630e89341c1461017a57806318160ddd146101aa575b600080fd5b610134600480360381019061012f9190611f1f565b6103a4565b6040516101419190611f6e565b60405180910390f35b610164600480360381019061015f9190611fe1565b6103fe565b6040516101719190612029565b60405180910390f35b610194600480360381019061018f9190612044565b6104e0565b6040516101a19190612101565b60405180910390f35b6101b2610585565b6040516101bf9190611f6e565b60405180910390f35b6101e260048036038101906101dd9190612320565b61058f565b005b6101fe60048036038101906101f991906123ab565b61076f565b005b61021a6004803603810190610215919061253d565b610817565b6040516102279190612673565b60405180910390f35b61024a60048036038101906102459190612044565b610926565b6040516102579190612029565b60405180910390f35b61026861093a565b005b610284600480360381019061027f9190612736565b61094e565b005b61028e6109fb565b60405161029b91906127a1565b60405180910390f35b6102be60048036038101906102b991906127bc565b610a25565b005b6102da60048036038101906102d59190612857565b610b5d565b005b6102f660048036038101906102f19190612044565b610b73565b6040516103039190611f6e565b60405180910390f35b61032660048036038101906103219190612044565b610b90565b6040516103339190612101565b60405180910390f35b61035660048036038101906103519190612897565b610c9b565b6040516103639190612029565b60405180910390f35b610386600480360381019061038191906128d7565b610d2f565b005b6103a2600480360381019061039d919061296e565b610dd7565b005b600080600083815260200190815260200160002060008473ffffffffffffffffffffffffffffffffffffffff1673ffffffffffffffffffffffffffffffffffffffff16815260200190815260200160002054905092915050565b60007fd9b67a26000000000000000000000000000000000000000000000000000000007bffffffffffffffffffffffffffffffffffffffffffffffffffffffff1916827bffffffffffffffffffffffffffffffffffffffffffffffffffffffff191614806104c957507f0e89341c000000000000000000000000000000000000000000000000000000007bffffffffffffffffffffffffffffffffffffffffffffffffffffffff1916827bffffffffffffffffffffffffffffffffffffffffffffffffffffffff1916145b806104d957506104d882610e5d565b5b9050919050565b6060600760008381526020019081526020016000208054610500906129ca565b80601f016020809104026020016040519081016040528092919081815260200182805461052c906129ca565b80156105795780601f1061054e57610100808354040283529160200191610579565b820191906000526020600020905b81548152906001019060200180831161055c57829003601f168201915b50505050509050919050565b6000600554905090565b610597610ec7565b600073ffffffffffffffffffffffffffffffffffffffff168373ffffffffffffffffffffffffffffffffffffffff1603610606576040517f08c379a00000000000000000000000000000000000000000000000000000000081526004016105fd90612a47565b60405180910390fd5b6000825167ffffffffffffffff81111561062357610622612128565b5b6040519080825280602002602001820160405280156106515781602001602082028036833780820191505090505b50905060005b835181101561070c57600084828151811061067557610674612a67565b5b6020026020010151116106bd576040517f08c379a00000000000000000000000000000000000000000000000000000000081526004016106b490612ae2565b60405180910390fd5b6001600660008282546106d09190612b31565b925050819055506006548282815181106106ed576106ec612a67565b5b602002602001018181525050808061070490612b65565b915050610657565b5061071984828585610f4e565b8373ffffffffffffffffffffffffffffffffffffffff167f975b10251631af0537a231daef9c6280fe469de096617cf778249f61cb60886e8285604051610761929190612bad565b60405180910390a250505050565b6000610779610fd4565b90508073ffffffffffffffffffffffffffffffffffffffff168673ffffffffffffffffffffffffffffffffffffffff16141580156107be57506107bc8682610c9b565b155b156108025780866040517fe237d9220000000000000000000000000000000000000000000000000000000081526004016107f9929190612be4565b60405180910390fd5b61080f8686868686610fdc565b505050505050565b6060815183511461086357815183516040517f5b05999100000000000000000000000000000000000000000000000000000000815260040161085a929190612c0d565b60405180910390fd5b6000835167ffffffffffffffff8111156108805761087f612128565b5b6040519080825280602002602001820160405280156108ae5781602001602082028036833780820191505090505b50905060005b845181101561091b576108eb6108d382876110d490919063ffffffff16565b6108e683876110e890919063ffffffff16565b6103a4565b8282815181106108fe576108fd612a67565b5b6020026020010181815250508061091490612b65565b90506108b4565b508091505092915050565b60008061093283610b73565b119050919050565b610942610ec7565b61094c60006110fc565b565b610956610ec7565b61095f82610926565b61099e576040517f08c379a000000000000000000000000000000000000000000000000000000000815260040161099590612c82565b60405180910390fd5b806007600084815260200190815260200160002090816109be9190612e4e565b50817f6bb7ff708619ba0610cba295a58592e0451dee2622938c8755667688daf3529b826040516109ef9190612101565b60405180910390a25050565b6000600360009054906101000a900473ffffffffffffffffffffffffffffffffffffffff16905090565b610a2d610ec7565b600073ffffffffffffffffffffffffffffffffffffffff168373ffffffffffffffffffffffffffffffffffffffff1603610a9c576040517f08c379a0000000000000000000000000000000000000000000000000000000008152600401610a9390612a47565b60405180910390fd5b60008211610adf576040517f08c379a0000000000000000000000000000000000000000000000000000000008152600401610ad690612ae2565b60405180910390fd5b600160066000828254610af29190612b31565b92505081905550610b078360065484846111c2565b6006548373ffffffffffffffffffffffffffffffffffffffff167f96234cb3d6c373a1aaa06497a540bc166d4b0359243a088eaf95e21d7253d0be84604051610b509190611f6e565b60405180910390a3505050565b610b6f610b68610fd4565b838361125b565b5050565b600060046000838152602001908152602001600020549050919050565b6060610b9b82610926565b610bda576040517f08c379a0000000000000000000000000000000000000000000000000000000008152600401610bd190612f6c565b60405180910390fd5b6000600760008481526020019081526020016000208054610bfa906129ca565b80601f0160208091040260200160405190810160405280929190818152602001828054610c26906129ca565b8015610c735780601f10610c4857610100808354040283529160200191610c73565b820191906000526020600020905b815481529060010190602001808311610c5657829003601f168201915b505050505090506000815111610c9157610c8c836104e0565b610c93565b805b915050919050565b6000600160008473ffffffffffffffffffffffffffffffffffffffff1673ffffffffffffffffffffffffffffffffffffffff16815260200190815260200160002060008373ffffffffffffffffffffffffffffffffffffffff1673ffffffffffffffffffffffffffffffffffffffff16815260200190815260200160002060009054906101000a900460ff16905092915050565b6000610d39610fd4565b90508073ffffffffffffffffffffffffffffffffffffffff168673ffffffffffffffffffffffffffffffffffffffff1614158015610d7e5750610d7c8682610c9b565b155b15610dc25780866040517fe237d922000000000000000000000000000000000000000000000000000000008152600401610db9929190612be4565b60405180910390fd5b610dcf86868686866113cb565b505050505050565b610ddf610ec7565b600073ffffffffffffffffffffffffffffffffffffffff168173ffffffffffffffffffffffffffffffffffffffff1603610e515760006040517f1e4fbdf7000000000000000000000000000000000000000000000000000000008152600401610e4891906127a1565b60405180910390fd5b610e5a816110fc565b50565b60007f01ffc9a7000000000000000000000000000000000000000000000000000000007bffffffffffffffffffffffffffffffffffffffffffffffffffffffff1916827bffffffffffffffffffffffffffffffffffffffffffffffffffffffff1916149050919050565b610ecf610fd4565b73ffffffffffffffffffffffffffffffffffffffff16610eed6109fb565b73ffffffffffffffffffffffffffffffffffffffff1614610f4c57610f10610fd4565b6040517f118cdaa7000000000000000000000000000000000000000000000000000000008152600401610f4391906127a1565b60405180910390fd5b565b600073ffffffffffffffffffffffffffffffffffffffff168473ffffffffffffffffffffffffffffffffffffffff1603610fc05760006040517f57f447ce000000000000000000000000000000000000000000000000000000008152600401610fb791906127a1565b60405180910390fd5b610fce6000858585856114d6565b50505050565b600033905090565b600073ffffffffffffffffffffffffffffffffffffffff168473ffffffffffffffffffffffffffffffffffffffff160361104e5760006040517f57f447ce00000000000000000000000000000000000000000000000000000000815260040161104591906127a1565b60405180910390fd5b600073ffffffffffffffffffffffffffffffffffffffff168573ffffffffffffffffffffffffffffffffffffffff16036110c05760006040517f01a835140000000000000000000000000000000000000000000000000000000081526004016110b791906127a1565b60405180910390fd5b6110cd85858585856114d6565b5050505050565b600060208202602084010151905092915050565b600060208202602084010151905092915050565b6000600360009054906101000a900473ffffffffffffffffffffffffffffffffffffffff16905081600360006101000a81548173ffffffffffffffffffffffffffffffffffffffff021916908373ffffffffffffffffffffffffffffffffffffffff1602179055508173ffffffffffffffffffffffffffffffffffffffff168173ffffffffffffffffffffffffffffffffffffffff167f8be0079c531659141344cd1fd0a4f28419497f9722a3daafe3b4186f6b6457e060405160405180910390a35050565b600073ffffffffffffffffffffffffffffffffffffffff168473ffffffffffffffffffffffffffffffffffffffff16036112345760006040517f57f447ce00000000000000000000000000000000000000000000000000000000815260040161122b91906127a1565b60405180910390fd5b6000806112418585611588565b915091506112536000878484876114d6565b505050505050565b600073ffffffffffffffffffffffffffffffffffffffff168273ffffffffffffffffffffffffffffffffffffffff16036112cd5760006040517fced3e1000000000000000000000000000000000000000000000000000000000081526004016112c491906127a1565b60405180910390fd5b80600160008573ffffffffffffffffffffffffffffffffffffffff1673ffffffffffffffffffffffffffffffffffffffff16815260200190815260200160002060008473ffffffffffffffffffffffffffffffffffffffff1673ffffffffffffffffffffffffffffffffffffffff16815260200190815260200160002060006101000a81548160ff0219169083151502179055508173ffffffffffffffffffffffffffffffffffffffff168373ffffffffffffffffffffffffffffffffffffffff167f17307eab39ab6107e8899845ad3d59bd9653f200f220920489ca2b5937696c31836040516113be9190612029565b60405180910390a3505050565b600073ffffffffffffffffffffffffffffffffffffffff168473ffffffffffffffffffffffffffffffffffffffff160361143d5760006040517f57f447ce00000000000000000000000000000000000000000000000000000000815260040161143491906127a1565b60405180910390fd5b600073ffffffffffffffffffffffffffffffffffffffff168573ffffffffffffffffffffffffffffffffffffffff16036114af5760006040517f01a835140000000000000000000000000000000000000000000000000000000081526004016114a691906127a1565b60405180910390fd5b6000806114bc8585611588565b915091506114cd87878484876114d6565b50505050505050565b6114e2858585856115b8565b600073ffffffffffffffffffffffffffffffffffffffff168473ffffffffffffffffffffffffffffffffffffffff1614611581576000611520610fd4565b905060018451036115705760006115416000866110e890919063ffffffff16565b905060006115596000866110e890919063ffffffff16565b90506115698389898585896115ca565b505061157f565b61157e81878787878761177e565b5b505b5050505050565b60608060405191506001825283602083015260408201905060018152826020820152604081016040529250929050565b6115c484848484611932565b50505050565b60008473ffffffffffffffffffffffffffffffffffffffff163b1115611776578373ffffffffffffffffffffffffffffffffffffffff1663f23a6e6187878686866040518663ffffffff1660e01b815260040161162b959493929190612fe1565b6020604051808303816000875af192505050801561166757506040513d601f19601f820116820180604052508101906116649190613050565b60015b6116eb573d8060008114611697576040519150601f19603f3d011682016040523d82523d6000602084013e61169c565b606091505b5060008151036116e357846040517f57f447ce0000000000000000000000000000000000000000000000000000000081526004016116da91906127a1565b60405180910390fd5b805181602001fd5b63f23a6e6160e01b7bffffffffffffffffffffffffffffffffffffffffffffffffffffffff1916817bffffffffffffffffffffffffffffffffffffffffffffffffffffffff19161461177457846040517f57f447ce00000000000000000000000000000000000000000000000000000000815260040161176b91906127a1565b60405180910390fd5b505b505050505050565b60008473ffffffffffffffffffffffffffffffffffffffff163b111561192a578373ffffffffffffffffffffffffffffffffffffffff1663bc197c8187878686866040518663ffffffff1660e01b81526004016117df95949392919061307d565b6020604051808303816000875af192505050801561181b57506040513d601f19601f820116820180604052508101906118189190613050565b60015b61189f573d806000811461184b576040519150601f19603f3d011682016040523d82523d6000602084013e611850565b606091505b50600081510361189757846040517f57f447ce00000000000000000000000000000000000000000000000000000000815260040161188e91906127a1565b60405180910390fd5b805181602001fd5b63bc197c8160e01b7bffffffffffffffffffffffffffffffffffffffffffffffffffffffff1916817bffffffffffffffffffffffffffffffffffffffffffffffffffffffff19161461192857846040517f57f447ce00000000000000000000000000000000000000000000000000000000815260040161191f91906127a1565b60405180910390fd5b505b505050505050565b61193e84848484611ac9565b600073ffffffffffffffffffffffffffffffffffffffff168473ffffffffffffffffffffffffffffffffffffffff1603611a0e576000805b83518110156119f257600061199482856110e890919063ffffffff16565b905080600460006119ae85896110e890919063ffffffff16565b815260200190815260200160002060008282546119cb9190612b31565b9250508190555080836119de9190612b31565b925050806119eb90612b65565b9050611976565b508060056000828254611a059190612b31565b92505081905550505b600073ffffffffffffffffffffffffffffffffffffffff168373ffffffffffffffffffffffffffffffffffffffff1603611ac3576000805b8351811015611ab0576000611a6482856110e890919063ffffffff16565b90508060046000611a7e85896110e890919063ffffffff16565b81526020019081526020016000206000828254039250508190555080830192505080611aa990612b65565b9050611a46565b5080600560008282540392505081905550505b50505050565b8051825114611b1357815181516040517f5b059991000000000000000000000000000000000000000000000000000000008152600401611b0a929190612c0d565b60405180910390fd5b6000611b1d610fd4565b905060005b8351811015611d32576000611b4082866110e890919063ffffffff16565b90506000611b5783866110e890919063ffffffff16565b9050600073ffffffffffffffffffffffffffffffffffffffff168873ffffffffffffffffffffffffffffffffffffffff1614611c8457600080600084815260200190815260200160002060008a73ffffffffffffffffffffffffffffffffffffffff1673ffffffffffffffffffffffffffffffffffffffff16815260200190815260200160002054905081811015611c2c57888183856040517f03dee4c5000000000000000000000000000000000000000000000000000000008152600401611c2394939291906130e5565b60405180910390fd5b81810360008085815260200190815260200160002060008b73ffffffffffffffffffffffffffffffffffffffff1673ffffffffffffffffffffffffffffffffffffffff16815260200190815260200160002081905550505b600073ffffffffffffffffffffffffffffffffffffffff168773ffffffffffffffffffffffffffffffffffffffff1614611d1f578060008084815260200190815260200160002060008973ffffffffffffffffffffffffffffffffffffffff1673ffffffffffffffffffffffffffffffffffffffff1681526020019081526020016000206000828254611d179190612b31565b925050819055505b505080611d2b90612b65565b9050611b22565b506001835103611df1576000611d526000856110e890919063ffffffff16565b90506000611d6a6000856110e890919063ffffffff16565b90508573ffffffffffffffffffffffffffffffffffffffff168773ffffffffffffffffffffffffffffffffffffffff168473ffffffffffffffffffffffffffffffffffffffff167fc3d58168c5ae7397731d063d5bbf3d657854427343f4c083240f7aacaa2d0f628585604051611de2929190612c0d565b60405180910390a45050611e70565b8373ffffffffffffffffffffffffffffffffffffffff168573ffffffffffffffffffffffffffffffffffffffff168273ffffffffffffffffffffffffffffffffffffffff167f4a39dc06d4c0dbc64b70af90fd698a233a518aa5d07e595d983b8c0526c8f7fb8686604051611e67929190612bad565b60405180910390a45b5050505050565b6000604051905090565b600080fd5b600080fd5b600073ffffffffffffffffffffffffffffffffffffffff82169050919050565b6000611eb682611e8b565b9050919050565b611ec681611eab565b8114611ed157600080fd5b50565b600081359050611ee381611ebd565b92915050565b6000819050919050565b611efc81611ee9565b8114611f0757600080fd5b50565b600081359050611f1981611ef3565b92915050565b60008060408385031215611f3657611f35611e81565b5b6000611f4485828601611ed4565b9250506020611f5585828601611f0a565b9150509250929050565b611f6881611ee9565b82525050565b6000602082019050611f836000830184611f5f565b92915050565b60007fffffffff0000000000000000000000000000000000000000000000000000000082169050919050565b611fbe81611f89565b8114611fc957600080fd5b50565b600081359050611fdb81611fb5565b92915050565b600060208284031215611ff757611ff6611e81565b5b600061200584828501611fcc565b91505092915050565b60008115159050919050565b6120238161200e565b82525050565b600060208201905061203e600083018461201a565b92915050565b60006020828403121561205a57612059611e81565b5b600061206884828501611f0a565b91505092915050565b600081519050919050565b600082825260208201905092915050565b60005b838110156120ab578082015181840152602081019050612090565b60008484015250505050565b6000601f19601f8301169050919050565b60006120d382612071565b6120dd818561207c565b93506120ed81856020860161208d565b6120f6816120b7565b840191505092915050565b6000602082019050818103600083015261211b81846120c8565b905092915050565b600080fd5b7f4e487b7100000000000000000000000000000000000000000000000000000000600052604160045260246000fd5b612160826120b7565b810181811067ffffffffffffffff8211171561217f5761217e612128565b5b80604052505050565b6000612192611e77565b905061219e8282612157565b919050565b600067ffffffffffffffff8211156121be576121bd612128565b5b602082029050602081019050919050565b600080fd5b60006121e76121e2846121a3565b612188565b9050808382526020820190506020840283018581111561220a576122096121cf565b5b835b81811015612233578061221f8882611f0a565b84526020840193505060208101905061220c565b5050509392505050565b600082601f83011261225257612251612123565b5b81356122628482602086016121d4565b91505092915050565b600080fd5b600067ffffffffffffffff82111561228b5761228a612128565b5b612294826120b7565b9050602081019050919050565b82818337600083830152505050565b60006122c36122be84612270565b612188565b9050828152602081018484840111156122df576122de61226b565b5b6122ea8482856122a1565b509392505050565b600082601f83011261230757612306612123565b5b81356123178482602086016122b0565b91505092915050565b60008060006060848603121561233957612338611e81565b5b600061234786828701611ed4565b935050602084013567ffffffffffffffff81111561236857612367611e86565b5b6123748682870161223d565b925050604084013567ffffffffffffffff81111561239557612394611e86565b5b6123a1868287016122f2565b9150509250925092565b600080600080600060a086880312156123c7576123c6611e81565b5b60006123d588828901611ed4565b95505060206123e688828901611ed4565b945050604086013567ffffffffffffffff81111561240757612406611e86565b5b6124138882890161223d565b935050606086013567ffffffffffffffff81111561243457612433611e86565b5b6124408882890161223d565b925050608086013567ffffffffffffffff81111561246157612460611e86565b5b61246d888289016122f2565b9150509295509295909350565b600067ffffffffffffffff82111561249557612494612128565b5b602082029050602081019050919050565b60006124b96124b48461247a565b612188565b905080838252602082019050602084028301858111156124dc576124db6121cf565b5b835b8181101561250557806124f18882611ed4565b8452602084019350506020810190506124de565b5050509392505050565b600082601f83011261252457612523612123565b5b81356125348482602086016124a6565b91505092915050565b6000806040838503121561255457612553611e81565b5b600083013567ffffffffffffffff81111561257257612571611e86565b5b61257e8582860161250f565b925050602083013567ffffffffffffffff81111561259f5761259e611e86565b5b6125ab8582860161223d565b9150509250929050565b600081519050919050565b600082825260208201905092915050565b6000819050602082019050919050565b6125ea81611ee9565b82525050565b60006125fc83836125e1565b60208301905092915050565b6000602082019050919050565b6000612620826125b5565b61262a81856125c0565b9350612635836125d1565b8060005b8381101561266657815161264d88826125f0565b975061265883612608565b925050600181019050612639565b5085935050505092915050565b6000602082019050818103600083015261268d8184612615565b905092915050565b600067ffffffffffffffff8211156126b0576126af612128565b5b6126b9826120b7565b9050602081019050919050565b60006126d96126d484612695565b612188565b9050828152602081018484840111156126f5576126f461226b565b5b6127008482856122a1565b509392505050565b600082601f83011261271d5761271c612123565b5b813561272d8482602086016126c6565b91505092915050565b6000806040838503121561274d5761274c611e81565b5b600061275b85828601611f0a565b925050602083013567ffffffffffffffff81111561277c5761277b611e86565b5b61278885828601612708565b9150509250929050565b61279b81611eab565b82525050565b60006020820190506127b66000830184612792565b92915050565b6000806000606084860312156127d5576127d4611e81565b5b60006127e386828701611ed4565b93505060206127f486828701611f0a565b925050604084013567ffffffffffffffff81111561281557612814611e86565b5b612821868287016122f2565b9150509250925092565b6128348161200e565b811461283f57600080fd5b50565b6000813590506128518161282b565b92915050565b6000806040838503121561286e5761286d611e81565b5b600061287c85828601611ed4565b925050602061288d85828601612842565b9150509250929050565b600080604083850312156128ae576128ad611e81565b5b60006128bc85828601611ed4565b92505060206128cd85828601611ed4565b9150509250929050565b600080600080600060a086880312156128f3576128f2611e81565b5b600061290188828901611ed4565b955050602061291288828901611ed4565b945050604061292388828901611f0a565b935050606061293488828901611f0a565b925050608086013567ffffffffffffffff81111561295557612954611e86565b5b612961888289016122f2565b9150509295509295909350565b60006020828403121561298457612983611e81565b5b600061299284828501611ed4565b91505092915050565b7f4e487b7100000000000000000000000000000000000000000000000000000000600052602260045260246000fd5b600060028204905060018216806129e257607f821691505b6020821081036129f5576129f461299b565b5b50919050565b7f4d696e7420746f20746865207a65726f20616464726573730000000000000000600082015250565b6000612a3160188361207c565b9150612a3c826129fb565b602082019050919050565b60006020820190508181036000830152612a6081612a24565b9050919050565b7f4e487b7100000000000000000000000000000000000000000000000000000000600052603260045260246000fd5b7f416d6f756e74206d75737420626520706f736974697665000000000000000000600082015250565b6000612acc60178361207c565b9150612ad782612a96565b602082019050919050565b60006020820190508181036000830152612afb81612abf565b9050919050565b7f4e487b7100000000000000000000000000000000000000000000000000000000600052601160045260246000fd5b6000612b3c82611ee9565b9150612b4783611ee9565b9250828201905080821115612b5f57612b5e612b02565b5b92915050565b6000612b7082611ee9565b91507fffffffffffffffffffffffffffffffffffffffffffffffffffffffffffffffff8203612ba257612ba1612b02565b5b600182019050919050565b60006040820190508181036000830152612bc78185612615565b90508181036020830152612bdb8184612615565b90509392505050565b6000604082019050612bf96000830185612792565b612c066020830184612792565b9392505050565b6000604082019050612c226000830185611f5f565b612c2f6020830184611f5f565b9392505050565b7f55524920736574206f66206e6f6e6578697374656e7420746f6b656e00000000600082015250565b6000612c6c601c8361207c565b9150612c7782612c36565b602082019050919050565b60006020820190508181036000830152612c9b81612c5f565b9050919050565b60008190508160005260206000209050919050565b60006020601f8301049050919050565b600082821b905092915050565b600060088302612d047fffffffffffffffffffffffffffffffffffffffffffffffffffffffffffffffff82612cc7565b612d0e8683612cc7565b95508019841693508086168417925050509392505050565b6000819050919050565b6000612d4b612d46612d4184611ee9565b612d26565b611ee9565b9050919050565b6000819050919050565b612d6583612d30565b612d79612d7182612d52565b848454612cd4565b825550505050565b600090565b612d8e612d81565b612d99818484612d5c565b505050565b5b81811015612dbd57612db2600082612d86565b600181019050612d9f565b5050565b601f821115612e0257612dd381612ca2565b612ddc84612cb7565b81016020851015612deb578190505b612dff612df785612cb7565b830182612d9e565b50505b505050565b600082821c905092915050565b6000612e2560001984600802612e07565b1980831691505092915050565b6000612e3e8383612e14565b9150826002028217905092915050565b612e5782612071565b67ffffffffffffffff811115612e7057612e6f612128565b5b612e7a82546129ca565b612e85828285612dc1565b600060209050601f831160018114612eb85760008415612ea6578287015190505b612eb08582612e32565b865550612f18565b601f198416612ec686612ca2565b60005b82811015612eee57848901518255600182019150602085019450602081019050612ec9565b86831015612f0b5784890151612f07601f891682612e14565b8355505b6001600288020188555050505b505050505050565b7f55524920717565727920666f72206e6f6e6578697374656e7420746f6b656e00600082015250565b6000612f56601f8361207c565b9150612f6182612f20565b602082019050919050565b60006020820190508181036000830152612f8581612f49565b9050919050565b600081519050919050565b600082825260208201905092915050565b6000612fb382612f8c565b612fbd8185612f97565b9350612fcd81856020860161208d565b612fd6816120b7565b840191505092915050565b600060a082019050612ff66000830188612792565b6130036020830187612792565b6130106040830186611f5f565b61301d6060830185611f5f565b818103608083015261302f8184612fa8565b90509695505050505050565b60008151905061304a81611fb5565b92915050565b60006020828403121561306657613065611e81565b5b60006130748482850161303b565b91505092915050565b600060a0820190506130926000830188612792565b61309f6020830187612792565b81810360408301526130b18186612615565b905081810360608301526130c58185612615565b905081810360808301526130d98184612fa8565b90509695505050505050565b60006080820190506130fa6000830187612792565b6131076020830186611f5f565b6131146040830185611f5f565b6131216060830184611f5f565b9594505050505056fea26469706673582212200788a44c6f37174fd1869c1cdaec88fe7302d20db583d45416d15c6851ec4d0a64736f6c63430008140033",
    "linkReferences": {},
    "deployedLinkReferences": {}
}