{
    "_format": "hh-sol-artifact-1",
    "contractName": "RentalIncomeDispenser",
    "sourceName": "contracts/RentalIncomeDispenser.sol",
    "abi": [
        {
            "inputs": [
                {
                    "internalType": "address",
                    "name": "_propertyToken",
                    "type": "address"
                }
            ],
            "stateMutability": "nonpayable",
            "type": "constructor"
        },
        {
            "inputs": [
                {
                    "internalType": "address",
                    "name": "owner",
                    "type": "address"
                }
            ],
            "name": "OwnableInvalidOwner",
            "type": "error"
        },
        {
            "inputs": [
                {
                    "internalType": "address",
                    "name": "account",
                    "type": "address"
                }
            ],
            "name": "OwnableUnauthorizedAccount",
            "type": "error"
        },
        {
            "anonymous": false,
            "inputs": [
                {
                    "indexed": false,
                    "internalType": "uint256",
                    "name": "amount",
                    "type": "uint256"
                }
            ],
            "name": "FeesCollected",
            "type": "event"
        },
        {
            "anonymous": false,
            "inputs": [
                {
                    "indexed": true,
                    "internalType": "uint256",
                    "name": "tokenId",
                    "type": "uint256"
                },
                {
                    "indexed": true,
                    "internalType": "address",
                    "name": "account",
                    "type": "address"
                },
                {
                    "indexed": false,
                    "internalType": "uint256",
                    "name": "amount",
                    "type": "uint256"
                }
            ],
            "name": "IncomeClaimed",
            "type": "event"
        },
        {
            "anonymous": false,
            "inputs": [
                {
                    "indexed": true,
                    "internalType": "address",
                    "name": "previousOwner",
                    "type": "address"
                },
                {
                    "indexed": true,
                    "internalType": "address",
                    "name": "newOwner",
                    "type": "address"
                }
            ],
            "name": "OwnershipTransferred",
            "type": "event"
        },
        {
            "anonymous": false,
            "inputs": [
                {
                    "indexed": true,
                    "internalType": "uint256",
                    "name": "tokenId",
                    "type": "uint256"
                },
                {
                    "indexed": false,
                    "internalType": "uint256",
                    "name": "amount",
                    "type": "uint256"
                }
            ],
            "name": "RentalIncomeReceived",
            "type": "event"
        },
        {
            "inputs": [],
            "name": "RENTAL_MANAGEMENT_FEE_PERCENTAGE",
            "outputs": [
                {
                    "internalType": "uint256",
                    "name": "",
                    "type": "uint256"
                }
            ],
            "stateMutability": "view",
            "type": "function"
        },
        {
            "inputs": [
                {
                    "internalType": "uint256",
                    "name": "tokenId",
                    "type": "uint256"
                }
            ],
            "name": "claimIncome",
            "outputs": [],
            "stateMutability": "nonpayable",
            "type": "function"
        },
        {
            "inputs": [
                {
                    "internalType": "uint256",
                    "name": "",
                    "type": "uint256"
                },
                {
                    "internalType": "address",
                    "name": "",
                    "type": "address"
                }
            ],
            "name": "claimedIncome",
            "outputs": [
                {
                    "internalType": "uint256",
                    "name": "",
                    "type": "uint256"
                }
            ],
            "stateMutability": "view",
            "type": "function"
        },
        {
            "inputs": [
                {
                    "internalType": "uint256",
                    "name": "tokenId",
                    "type": "uint256"
                }
            ],
            "name": "distributeRentalIncome",
            "outputs": [],
            "stateMutability": "payable",
            "type": "function"
        },
        {
            "inputs": [
                {
                    "internalType": "uint256",
                    "name": "tokenId",
                    "type": "uint256"
                },
                {
                    "internalType": "address",
                    "name": "account",
                    "type": "address"
                }
            ],
            "name": "getUnclaimedIncome",
            "outputs": [
                {
                    "internalType": "uint256",
                    "name": "",
                    "type": "uint256"
                }
            ],
            "stateMutability": "view",
            "type": "function"
        },
        {
            "inputs": [
                {
                    "internalType": "address",
                    "name": "",
                    "type": "address"
                },
                {
                    "internalType": "address",
                    "name": "",
                    "type": "address"
                },
                {
                    "internalType": "uint256[]",
                    "name": "",
                    "type": "uint256[]"
                },
                {
                    "internalType": "uint256[]",
                    "name": "",
                    "type": "uint256[]"
                },
                {
                    "internalType": "bytes",
                    "name": "",
                    "type": "bytes"
                }
            ],
            "name": "onERC1155BatchReceived",
            "outputs": [
                {
                    "internalType": "bytes4",
                    "name": "",
                    "type": "bytes4"
                }
            ],
            "stateMutability": "nonpayable",
            "type": "function"
        },
        {
            "inputs": [
                {
                    "internalType": "address",
                    "name": "",
                    "type": "address"
                },
                {
                    "internalType": "address",
                    "name": "",
                    "type": "address"
                },
                {
                    "internalType": "uint256",
                    "name": "",
                    "type": "uint256"
                },
                {
                    "internalType": "uint256",
                    "name": "",
                    "type": "uint256"
                },
                {
                    "internalType": "bytes",
                    "name": "",
                    "type": "bytes"
                }
            ],
            "name": "onERC1155Received",
            "outputs": [
                {
                    "internalType": "bytes4",
                    "name": "",
                    "type": "bytes4"
                }
            ],
            "stateMutability": "nonpayable",
            "type": "function"
        },
        {
            "inputs": [],
            "name": "owner",
            "outputs": [
                {
                    "internalType": "address",
                    "name": "",
                    "type": "address"
                }
            ],
            "stateMutability": "view",
            "type": "function"
        },
        {
            "inputs": [],
            "name": "propertyToken",
            "outputs": [
                {
                    "internalType": "contract IERC1155",
                    "name": "",
                    "type": "address"
                }
            ],
            "stateMutability": "view",
            "type": "function"
        },
        {
            "inputs": [],
            "name": "renounceOwnership",
            "outputs": [],
            "stateMutability": "nonpayable",
            "type": "function"
        },
        {
            "inputs": [
                {
                    "internalType": "uint256",
                    "name": "",
                    "type": "uint256"
                }
            ],
            "name": "rentalIncomes",
            "outputs": [
                {
                    "internalType": "uint256",
                    "name": "tokenId",
                    "type": "uint256"
                },
                {
                    "internalType": "uint256",
                    "name": "totalAmount",
                    "type": "uint256"
                },
                {
                    "internalType": "uint256",
                    "name": "totalSupply",
                    "type": "uint256"
                },
                {
                    "internalType": "uint256",
                    "name": "claimedAmount",
                    "type": "uint256"
                },
                {
                    "internalType": "uint256",
                    "name": "lastDistributionTimestamp",
                    "type": "uint256"
                }
            ],
            "stateMutability": "view",
            "type": "function"
        },
        {
            "inputs": [
                {
                    "internalType": "bytes4",
                    "name": "interfaceId",
                    "type": "bytes4"
                }
            ],
            "name": "supportsInterface",
            "outputs": [
                {
                    "internalType": "bool",
                    "name": "",
                    "type": "bool"
                }
            ],
            "stateMutability": "view",
            "type": "function"
        },
        {
            "inputs": [
                {
                    "internalType": "address",
                    "name": "newOwner",
                    "type": "address"
                }
            ],
            "name": "transferOwnership",
            "outputs": [],
            "stateMutability": "nonpayable",
            "type": "function"
        },
        {
            "inputs": [
                {
                    "internalType": "address",
                    "name": "_newPropertyToken",
                    "type": "address"
                }
            ],
            "name": "updatePropertyTokenAddress",
            "outputs": [],
            "stateMutability": "nonpayable",
            "type": "function"
        },
        {
            "inputs": [],
            "name": "withdrawFees",
            "outputs": [],
            "stateMutability": "nonpayable",
            "type": "function"
        }
    ],
    "bytecode": "0x60806040523480156200001157600080fd5b5060405162001c8138038062001c81833981810160405281019062000037919062000235565b33600073ffffffffffffffffffffffffffffffffffffffff168173ffffffffffffffffffffffffffffffffffffffff1603620000ad5760006040517f1e4fbdf7000000000000000000000000000000000000000000000000000000008152600401620000a4919062000278565b60405180910390fd5b620000be816200010760201b60201c565b5080600160006101000a81548173ffffffffffffffffffffffffffffffffffffffff021916908373ffffffffffffffffffffffffffffffffffffffff1602179055505062000295565b60008060009054906101000a900473ffffffffffffffffffffffffffffffffffffffff169050816000806101000a81548173ffffffffffffffffffffffffffffffffffffffff021916908373ffffffffffffffffffffffffffffffffffffffff1602179055508173ffffffffffffffffffffffffffffffffffffffff168173ffffffffffffffffffffffffffffffffffffffff167f8be0079c531659141344cd1fd0a4f28419497f9722a3daafe3b4186f6b6457e060405160405180910390a35050565b600080fd5b600073ffffffffffffffffffffffffffffffffffffffff82169050919050565b6000620001fd82620001d0565b9050919050565b6200020f81620001f0565b81146200021b57600080fd5b50565b6000815190506200022f8162000204565b92915050565b6000602082840312156200024e576200024d620001cb565b5b60006200025e848285016200021e565b91505092915050565b6200027281620001f0565b82525050565b60006020820190506200028f600083018462000267565b92915050565b6119dc80620002a56000396000f3fe6080604052600436106100e85760003560e01c8063715018a61161008a578063db43919b11610059578063db43919b146102e6578063efd95b9514610302578063f23a6e611461033f578063f2fde38b1461037c576100e8565b8063715018a61461023c5780638da5cb5b14610253578063bc197c811461027e578063bc9b6e2e146102bb576100e8565b806332cdcff8116100c657806332cdcff81461017c57806343ae2695146101bd578063476343ee146101e8578063483a00f3146101ff576100e8565b806301ffc9a7146100ed57806302912c041461012a5780632dabc5fc14610153575b600080fd5b3480156100f957600080fd5b50610114600480360381019061010f9190610f5f565b6103a5565b6040516101219190610fa7565b60405180910390f35b34801561013657600080fd5b50610151600480360381019061014c9190611020565b61041f565b005b34801561015f57600080fd5b5061017a60048036038101906101759190611083565b6104da565b005b34801561018857600080fd5b506101a3600480360381019061019e9190611083565b6107bc565b6040516101b49594939291906110bf565b60405180910390f35b3480156101c957600080fd5b506101d26107f2565b6040516101df9190611171565b60405180910390f35b3480156101f457600080fd5b506101fd610818565b005b34801561020b57600080fd5b506102266004803603810190610221919061118c565b6108b9565b60405161023391906111cc565b60405180910390f35b34801561024857600080fd5b506102516108de565b005b34801561025f57600080fd5b506102686108f2565b60405161027591906111f6565b60405180910390f35b34801561028a57600080fd5b506102a560048036038101906102a0919061141f565b61091b565b6040516102b291906114fd565b60405180910390f35b3480156102c757600080fd5b506102d0610930565b6040516102dd91906111cc565b60405180910390f35b61030060048036038101906102fb9190611083565b610935565b005b34801561030e57600080fd5b506103296004803603810190610324919061118c565b610b41565b60405161033691906111cc565b60405180910390f35b34801561034b57600080fd5b5061036660048036038101906103619190611518565b610c9b565b60405161037391906114fd565b60405180910390f35b34801561038857600080fd5b506103a3600480360381019061039e9190611020565b610cb0565b005b60007f4e2312e0000000000000000000000000000000000000000000000000000000007bffffffffffffffffffffffffffffffffffffffffffffffffffffffff1916827bffffffffffffffffffffffffffffffffffffffffffffffffffffffff19161480610418575061041782610d36565b5b9050919050565b610427610da0565b600073ffffffffffffffffffffffffffffffffffffffff168173ffffffffffffffffffffffffffffffffffffffff1603610496576040517f08c379a000000000000000000000000000000000000000000000000000000000815260040161048d9061160c565b60405180910390fd5b80600160006101000a81548173ffffffffffffffffffffffffffffffffffffffff021916908373ffffffffffffffffffffffffffffffffffffffff16021790555050565b60006002600083815260200190815260200160002090506000816001015411610538576040517f08c379a000000000000000000000000000000000000000000000000000000000815260040161052f90611678565b60405180910390fd5b600081600201541161057f576040517f08c379a00000000000000000000000000000000000000000000000000000000081526004016105769061170a565b60405180910390fd5b6000600160009054906101000a900473ffffffffffffffffffffffffffffffffffffffff1673ffffffffffffffffffffffffffffffffffffffff1662fdd58e33856040518363ffffffff1660e01b81526004016105dd92919061172a565b602060405180830381865afa1580156105fa573d6000803e3d6000fd5b505050506040513d601f19601f8201168201806040525081019061061e9190611768565b905060006003600085815260200190815260200160002060003373ffffffffffffffffffffffffffffffffffffffff1673ffffffffffffffffffffffffffffffffffffffff16815260200190815260200160002054836002015483856001015461068891906117c4565b6106929190611835565b61069c9190611866565b9050806003600086815260200190815260200160002060003373ffffffffffffffffffffffffffffffffffffffff1673ffffffffffffffffffffffffffffffffffffffff16815260200190815260200160002060008282546106fe919061189a565b9250508190555080836003016000828254610719919061189a565b925050819055503373ffffffffffffffffffffffffffffffffffffffff166108fc829081150290604051600060405180830381858888f19350505050158015610766573d6000803e3d6000fd5b503373ffffffffffffffffffffffffffffffffffffffff16847f37c700384a18d5461c1c9b81b088e7b9f6e97b2cd355c61c9d9fac3e18fb14d1836040516107ae91906111cc565b60405180910390a350505050565b60026020528060005260406000206000915090508060000154908060010154908060020154908060030154908060040154905085565b600160009054906101000a900473ffffffffffffffffffffffffffffffffffffffff1681565b610820610da0565b600047905060008111610868576040517f08c379a000000000000000000000000000000000000000000000000000000000815260040161085f9061191a565b60405180910390fd5b6108706108f2565b73ffffffffffffffffffffffffffffffffffffffff166108fc829081150290604051600060405180830381858888f193505050501580156108b5573d6000803e3d6000fd5b5050565b6003602052816000526040600020602052806000526040600020600091509150505481565b6108e6610da0565b6108f06000610e27565b565b60008060009054906101000a900473ffffffffffffffffffffffffffffffffffffffff16905090565b600063bc197c8160e01b905095945050505050565b600281565b60003411610978576040517f08c379a000000000000000000000000000000000000000000000000000000000815260040161096f90611986565b60405180910390fd5b6000600260008381526020019081526020016000209050600060646002346109a091906117c4565b6109aa9190611835565b9050600081346109ba9190611866565b9050808360010160008282546109d0919061189a565b92505081905550600160009054906101000a900473ffffffffffffffffffffffffffffffffffffffff1673ffffffffffffffffffffffffffffffffffffffff1662fdd58e30866040518363ffffffff1660e01b8152600401610a3392919061172a565b602060405180830381865afa158015610a50573d6000803e3d6000fd5b505050506040513d601f19601f82011682018060405250810190610a749190611768565b83600201819055506000836002015411610ac3576040517f08c379a0000000000000000000000000000000000000000000000000000000008152600401610aba9061170a565b60405180910390fd5b428360040181905550837fd2343c8434f9fc3bdc8804fbd9c15c0a6edcfec9e99c6c18ed7411a98fd1c6f082604051610afc91906111cc565b60405180910390a27f860c0aa5520013080c2f65981705fcdea474d9f7c3daf954656ed5e65d692d1f82604051610b3391906111cc565b60405180910390a150505050565b6000806002600085815260200190815260200160002090506000816002015403610b6f576000915050610c95565b6000600160009054906101000a900473ffffffffffffffffffffffffffffffffffffffff1673ffffffffffffffffffffffffffffffffffffffff1662fdd58e85876040518363ffffffff1660e01b8152600401610bcd92919061172a565b602060405180830381865afa158015610bea573d6000803e3d6000fd5b505050506040513d601f19601f82011682018060405250810190610c0e9190611768565b905060008260020154828460010154610c2791906117c4565b610c319190611835565b90506003600087815260200190815260200160002060008673ffffffffffffffffffffffffffffffffffffffff1673ffffffffffffffffffffffffffffffffffffffff1681526020019081526020016000205481610c8f9190611866565b93505050505b92915050565b600063f23a6e6160e01b905095945050505050565b610cb8610da0565b600073ffffffffffffffffffffffffffffffffffffffff168173ffffffffffffffffffffffffffffffffffffffff1603610d2a5760006040517f1e4fbdf7000000000000000000000000000000000000000000000000000000008152600401610d2191906111f6565b60405180910390fd5b610d3381610e27565b50565b60007f01ffc9a7000000000000000000000000000000000000000000000000000000007bffffffffffffffffffffffffffffffffffffffffffffffffffffffff1916827bffffffffffffffffffffffffffffffffffffffffffffffffffffffff1916149050919050565b610da8610eeb565b73ffffffffffffffffffffffffffffffffffffffff16610dc66108f2565b73ffffffffffffffffffffffffffffffffffffffff1614610e2557610de9610eeb565b6040517f118cdaa7000000000000000000000000000000000000000000000000000000008152600401610e1c91906111f6565b60405180910390fd5b565b60008060009054906101000a900473ffffffffffffffffffffffffffffffffffffffff169050816000806101000a81548173ffffffffffffffffffffffffffffffffffffffff021916908373ffffffffffffffffffffffffffffffffffffffff1602179055508173ffffffffffffffffffffffffffffffffffffffff168173ffffffffffffffffffffffffffffffffffffffff167f8be0079c531659141344cd1fd0a4f28419497f9722a3daafe3b4186f6b6457e060405160405180910390a35050565b600033905090565b6000604051905090565b600080fd5b600080fd5b60007fffffffff0000000000000000000000000000000000000000000000000000000082169050919050565b610f3c81610f07565b8114610f4757600080fd5b50565b600081359050610f5981610f33565b92915050565b600060208284031215610f7557610f74610efd565b5b6000610f8384828501610f4a565b91505092915050565b60008115159050919050565b610fa181610f8c565b82525050565b6000602082019050610fbc6000830184610f98565b92915050565b600073ffffffffffffffffffffffffffffffffffffffff82169050919050565b6000610fed82610fc2565b9050919050565b610ffd81610fe2565b811461100857600080fd5b50565b60008135905061101a81610ff4565b92915050565b60006020828403121561103657611035610efd565b5b60006110448482850161100b565b91505092915050565b6000819050919050565b6110608161104d565b811461106b57600080fd5b50565b60008135905061107d81611057565b92915050565b60006020828403121561109957611098610efd565b5b60006110a78482850161106e565b91505092915050565b6110b98161104d565b82525050565b600060a0820190506110d460008301886110b0565b6110e160208301876110b0565b6110ee60408301866110b0565b6110fb60608301856110b0565b61110860808301846110b0565b9695505050505050565b6000819050919050565b600061113761113261112d84610fc2565b611112565b610fc2565b9050919050565b60006111498261111c565b9050919050565b600061115b8261113e565b9050919050565b61116b81611150565b82525050565b60006020820190506111866000830184611162565b92915050565b600080604083850312156111a3576111a2610efd565b5b60006111b18582860161106e565b92505060206111c28582860161100b565b9150509250929050565b60006020820190506111e160008301846110b0565b92915050565b6111f081610fe2565b82525050565b600060208201905061120b60008301846111e7565b92915050565b600080fd5b6000601f19601f8301169050919050565b7f4e487b7100000000000000000000000000000000000000000000000000000000600052604160045260246000fd5b61125f82611216565b810181811067ffffffffffffffff8211171561127e5761127d611227565b5b80604052505050565b6000611291610ef3565b905061129d8282611256565b919050565b600067ffffffffffffffff8211156112bd576112bc611227565b5b602082029050602081019050919050565b600080fd5b60006112e66112e1846112a2565b611287565b90508083825260208201905060208402830185811115611309576113086112ce565b5b835b81811015611332578061131e888261106e565b84526020840193505060208101905061130b565b5050509392505050565b600082601f83011261135157611350611211565b5b81356113618482602086016112d3565b91505092915050565b600080fd5b600067ffffffffffffffff82111561138a57611389611227565b5b61139382611216565b9050602081019050919050565b82818337600083830152505050565b60006113c26113bd8461136f565b611287565b9050828152602081018484840111156113de576113dd61136a565b5b6113e98482856113a0565b509392505050565b600082601f83011261140657611405611211565b5b81356114168482602086016113af565b91505092915050565b600080600080600060a0868803121561143b5761143a610efd565b5b60006114498882890161100b565b955050602061145a8882890161100b565b945050604086013567ffffffffffffffff81111561147b5761147a610f02565b5b6114878882890161133c565b935050606086013567ffffffffffffffff8111156114a8576114a7610f02565b5b6114b48882890161133c565b925050608086013567ffffffffffffffff8111156114d5576114d4610f02565b5b6114e1888289016113f1565b9150509295509295909350565b6114f781610f07565b82525050565b600060208201905061151260008301846114ee565b92915050565b600080600080600060a0868803121561153457611533610efd565b5b60006115428882890161100b565b95505060206115538882890161100b565b94505060406115648882890161106e565b93505060606115758882890161106e565b925050608086013567ffffffffffffffff81111561159657611595610f02565b5b6115a2888289016113f1565b9150509295509295909350565b600082825260208201905092915050565b7f496e76616c696420616464726573730000000000000000000000000000000000600082015250565b60006115f6600f836115af565b9150611601826115c0565b602082019050919050565b60006020820190508181036000830152611625816115e9565b9050919050565b7f4e6f20696e636f6d6520746f20636c61696d0000000000000000000000000000600082015250565b60006116626012836115af565b915061166d8261162c565b602082019050919050565b6000602082019050818103600083015261169181611655565b9050919050565b7f4e6f20746f6b656e73206d696e74656420666f7220746869732070726f70657260008201527f7479000000000000000000000000000000000000000000000000000000000000602082015250565b60006116f46022836115af565b91506116ff82611698565b604082019050919050565b60006020820190508181036000830152611723816116e7565b9050919050565b600060408201905061173f60008301856111e7565b61174c60208301846110b0565b9392505050565b60008151905061176281611057565b92915050565b60006020828403121561177e5761177d610efd565b5b600061178c84828501611753565b91505092915050565b7f4e487b7100000000000000000000000000000000000000000000000000000000600052601160045260246000fd5b60006117cf8261104d565b91506117da8361104d565b92508282026117e88161104d565b915082820484148315176117ff576117fe611795565b5b5092915050565b7f4e487b7100000000000000000000000000000000000000000000000000000000600052601260045260246000fd5b60006118408261104d565b915061184b8361104d565b92508261185b5761185a611806565b5b828204905092915050565b60006118718261104d565b915061187c8361104d565b925082820390508181111561189457611893611795565b5b92915050565b60006118a58261104d565b91506118b08361104d565b92508282019050808211156118c8576118c7611795565b5b92915050565b7f4e6f206665657320746f20776974686472617700000000000000000000000000600082015250565b60006119046013836115af565b915061190f826118ce565b602082019050919050565b60006020820190508181036000830152611933816118f7565b9050919050565b7f4d7573742073656e6420736f6d65204554480000000000000000000000000000600082015250565b60006119706012836115af565b915061197b8261193a565b602082019050919050565b6000602082019050818103600083015261199f81611963565b905091905056fea2646970667358221220d5786355b0c7c7f41ed6aec18dcc6376affce6d41785e27123d256f869f6690d64736f6c63430008140033",
    "linkReferences": {},
    "deployedLinkReferences": {}
}